{
  "contractName": "HumanAuction",
  "abi": [
    {
      "inputs": [],
      "stateMutability": "nonpayable",
      "type": "constructor"
    },
    {
      "anonymous": false,
      "inputs": [
        {
          "indexed": false,
          "internalType": "uint256",
          "name": "tokenId",
          "type": "uint256"
        },
        {
          "components": [
            {
              "components": [
                {
                  "internalType": "address",
                  "name": "bidder",
                  "type": "address"
                },
                {
                  "internalType": "uint256",
                  "name": "balance",
                  "type": "uint256"
                },
                {
                  "internalType": "uint256",
                  "name": "time",
                  "type": "uint256"
                }
              ],
              "internalType": "struct HumanAuction.Bid",
              "name": "lastBid",
              "type": "tuple"
            },
            {
              "internalType": "uint256",
              "name": "deadline",
              "type": "uint256"
            },
            {
              "internalType": "bool",
              "name": "executed",
              "type": "bool"
            }
          ],
          "indexed": false,
          "internalType": "struct HumanAuction.Auction",
          "name": "auction",
          "type": "tuple"
        }
      ],
      "name": "AddAuction",
      "type": "event"
    },
    {
      "anonymous": false,
      "inputs": [
        {
          "indexed": false,
          "internalType": "uint256",
          "name": "tokenId",
          "type": "uint256"
        },
        {
          "components": [
            {
              "internalType": "address",
              "name": "bidder",
              "type": "address"
            },
            {
              "internalType": "uint256",
              "name": "balance",
              "type": "uint256"
            },
            {
              "internalType": "uint256",
              "name": "time",
              "type": "uint256"
            }
          ],
          "indexed": false,
          "internalType": "struct HumanAuction.Bid",
          "name": "bid",
          "type": "tuple"
        }
      ],
      "name": "AddBid",
      "type": "event"
    },
    {
      "anonymous": false,
      "inputs": [
        {
          "indexed": false,
          "internalType": "uint256",
          "name": "tokenId",
          "type": "uint256"
        }
      ],
      "name": "Execute",
      "type": "event"
    },
    {
      "anonymous": false,
      "inputs": [
        {
          "indexed": true,
          "internalType": "address",
          "name": "previousOwner",
          "type": "address"
        },
        {
          "indexed": true,
          "internalType": "address",
          "name": "newOwner",
          "type": "address"
        }
      ],
      "name": "OwnershipTransferred",
      "type": "event"
    },
    {
      "inputs": [
        {
          "internalType": "uint256",
          "name": "",
          "type": "uint256"
        }
      ],
      "name": "auctions",
      "outputs": [
        {
          "components": [
            {
              "internalType": "address",
              "name": "bidder",
              "type": "address"
            },
            {
              "internalType": "uint256",
              "name": "balance",
              "type": "uint256"
            },
            {
              "internalType": "uint256",
              "name": "time",
              "type": "uint256"
            }
          ],
          "internalType": "struct HumanAuction.Bid",
          "name": "lastBid",
          "type": "tuple"
        },
        {
          "internalType": "uint256",
          "name": "deadline",
          "type": "uint256"
        },
        {
          "internalType": "bool",
          "name": "executed",
          "type": "bool"
        }
      ],
      "stateMutability": "view",
      "type": "function",
      "constant": true
    },
    {
      "inputs": [
        {
          "internalType": "uint256",
          "name": "",
          "type": "uint256"
        },
        {
          "internalType": "uint256",
          "name": "",
          "type": "uint256"
        }
      ],
      "name": "bids",
      "outputs": [
        {
          "internalType": "address",
          "name": "bidder",
          "type": "address"
        },
        {
          "internalType": "uint256",
          "name": "balance",
          "type": "uint256"
        },
        {
          "internalType": "uint256",
          "name": "time",
          "type": "uint256"
        }
      ],
      "stateMutability": "view",
      "type": "function",
      "constant": true
    },
    {
      "inputs": [],
      "name": "owner",
      "outputs": [
        {
          "internalType": "address",
          "name": "",
          "type": "address"
        }
      ],
      "stateMutability": "view",
      "type": "function",
      "constant": true
    },
    {
      "inputs": [],
      "name": "renounceOwnership",
      "outputs": [],
      "stateMutability": "nonpayable",
      "type": "function"
    },
    {
      "inputs": [
        {
          "internalType": "address",
          "name": "newOwner",
          "type": "address"
        }
      ],
      "name": "transferOwnership",
      "outputs": [],
      "stateMutability": "nonpayable",
      "type": "function"
    },
    {
      "inputs": [
        {
          "internalType": "address",
          "name": "_address",
          "type": "address"
        }
      ],
      "name": "setHumanERC721",
      "outputs": [],
      "stateMutability": "nonpayable",
      "type": "function"
    },
    {
      "inputs": [
        {
          "internalType": "address",
          "name": "_address",
          "type": "address"
        }
      ],
      "name": "setHumanERC20",
      "outputs": [],
      "stateMutability": "nonpayable",
      "type": "function"
    },
    {
      "inputs": [
        {
          "internalType": "address",
          "name": "_to",
          "type": "address"
        },
        {
          "internalType": "uint256",
          "name": "_balance",
          "type": "uint256"
        }
      ],
      "name": "transferERC20",
      "outputs": [],
      "stateMutability": "nonpayable",
      "type": "function"
    },
    {
      "inputs": [
        {
          "internalType": "uint256",
          "name": "_tokenId",
          "type": "uint256"
        },
        {
          "internalType": "uint256",
          "name": "deadline",
          "type": "uint256"
        }
      ],
      "name": "addAuction",
      "outputs": [
        {
          "internalType": "uint256",
          "name": "",
          "type": "uint256"
        }
      ],
      "stateMutability": "nonpayable",
      "type": "function"
    },
    {
      "inputs": [
        {
          "internalType": "uint256",
          "name": "_tokenId",
          "type": "uint256"
        },
        {
          "internalType": "uint256",
          "name": "_balance",
          "type": "uint256"
        }
      ],
      "name": "bid",
      "outputs": [],
      "stateMutability": "nonpayable",
      "type": "function"
    },
    {
      "inputs": [
        {
          "internalType": "uint256",
          "name": "_tokenId",
          "type": "uint256"
        }
      ],
      "name": "execute",
      "outputs": [],
      "stateMutability": "nonpayable",
      "type": "function"
    }
  ],
  "bytecode": "0x608060405234801561001057600080fd5b5061002d61002261003260201b60201c565b61003a60201b60201c565b6100fe565b600033905090565b60008060009054906101000a900473ffffffffffffffffffffffffffffffffffffffff169050816000806101000a81548173ffffffffffffffffffffffffffffffffffffffff021916908373ffffffffffffffffffffffffffffffffffffffff1602179055508173ffffffffffffffffffffffffffffffffffffffff168173ffffffffffffffffffffffffffffffffffffffff167f8be0079c531659141344cd1fd0a4f28419497f9722a3daafe3b4186f6b6457e060405160405180910390a35050565b6116aa8061010d6000396000f3fe608060405234801561001057600080fd5b50600436106100a95760003560e01c80637b3c4baa116100715780637b3c4baa146101525780638da5cb5b146101845780638fb4529c146101a2578063f2fde38b146101be578063f7448a31146101da578063fe0d94c1146101f6576100a9565b806340a67850146100ae578063571a26a0146100ca578063598647f8146100fc578063715018a61461011857806373187d2714610122575b600080fd5b6100c860048036038101906100c39190611003565b610212565b005b6100e460048036038101906100df9190611066565b6102d2565b6040516100f39392919061111d565b60405180910390f35b61011660048036038101906101119190611154565b61037d565b005b6101206106c0565b005b61013c60048036038101906101379190611154565b610748565b6040516101499190611194565b60405180910390f35b61016c60048036038101906101679190611154565b6109a0565b60405161017b939291906111be565b60405180910390f35b61018c610a07565b60405161019991906111f5565b60405180910390f35b6101bc60048036038101906101b79190611003565b610a30565b005b6101d860048036038101906101d39190611003565b610af0565b005b6101f460048036038101906101ef9190611210565b610be8565b005b610210600480360381019061020b9190611066565b610d09565b005b61021a610ed4565b73ffffffffffffffffffffffffffffffffffffffff16610238610a07565b73ffffffffffffffffffffffffffffffffffffffff161461028e576040517f08c379a0000000000000000000000000000000000000000000000000000000008152600401610285906112ad565b60405180910390fd5b80600360006101000a81548173ffffffffffffffffffffffffffffffffffffffff021916908373ffffffffffffffffffffffffffffffffffffffff16021790555050565b6001602052806000526040600020600091509050806000016040518060600160405290816000820160009054906101000a900473ffffffffffffffffffffffffffffffffffffffff1673ffffffffffffffffffffffffffffffffffffffff1673ffffffffffffffffffffffffffffffffffffffff16815260200160018201548152602001600282015481525050908060030154908060040160009054906101000a900460ff16905083565b60006001600084815260200190815260200160002090506000429050808260030154116103a957600080fd5b828260000160010154106103bc57600080fd5b600460009054906101000a900473ffffffffffffffffffffffffffffffffffffffff1673ffffffffffffffffffffffffffffffffffffffff166323b872dd3330866040518463ffffffff1660e01b815260040161041b939291906112cd565b6020604051808303816000875af115801561043a573d6000803e3d6000fd5b505050506040513d601f19601f8201168201806040525081019061045e9190611330565b50600460009054906101000a900473ffffffffffffffffffffffffffffffffffffffff1673ffffffffffffffffffffffffffffffffffffffff1663a9059cbb8360000160000160009054906101000a900473ffffffffffffffffffffffffffffffffffffffff1684600001600101546040518363ffffffff1660e01b81526004016104ea92919061135d565b6020604051808303816000875af1158015610509573d6000803e3d6000fd5b505050506040513d601f19601f8201168201806040525081019061052d9190611330565b50600260008581526020019081526020016000208260000190806001815401808255809150506001900390600052602060002090600302016000909190919091506000820160009054906101000a900473ffffffffffffffffffffffffffffffffffffffff168160000160006101000a81548173ffffffffffffffffffffffffffffffffffffffff021916908373ffffffffffffffffffffffffffffffffffffffff1602179055506001820154816001015560028201548160020155505060405180606001604052803373ffffffffffffffffffffffffffffffffffffffff168152602001848152602001828152508260000160008201518160000160006101000a81548173ffffffffffffffffffffffffffffffffffffffff021916908373ffffffffffffffffffffffffffffffffffffffff16021790555060208201518160010155604082015181600201559050507f079b05f202cf2d952f6dd2874549c82f9c01a9a55483ac950b3175e1b6c4bee284836000016040516106b2929190611456565b60405180910390a150505050565b6106c8610ed4565b73ffffffffffffffffffffffffffffffffffffffff166106e6610a07565b73ffffffffffffffffffffffffffffffffffffffff161461073c576040517f08c379a0000000000000000000000000000000000000000000000000000000008152600401610733906112ad565b60405180910390fd5b6107466000610edc565b565b6000610752610ed4565b73ffffffffffffffffffffffffffffffffffffffff16610770610a07565b73ffffffffffffffffffffffffffffffffffffffff16146107c6576040517f08c379a00000000000000000000000000000000000000000000000000000000081526004016107bd906112ad565b60405180910390fd5b600360009054906101000a900473ffffffffffffffffffffffffffffffffffffffff1673ffffffffffffffffffffffffffffffffffffffff166323b872dd3330866040518463ffffffff1660e01b8152600401610825939291906112cd565b600060405180830381600087803b15801561083f57600080fd5b505af1158015610853573d6000803e3d6000fd5b50505050604051806060016040528060405180606001604052803373ffffffffffffffffffffffffffffffffffffffff16815260200160008152602001428152508152602001838152602001600015158152506001600085815260200190815260200160002060008201518160000160008201518160000160006101000a81548173ffffffffffffffffffffffffffffffffffffffff021916908373ffffffffffffffffffffffffffffffffffffffff160217905550602082015181600101556040820151816002015550506020820151816003015560408201518160040160006101000a81548160ff0219169083151502179055509050507fa6e2534eb6464f790d4b4844f2fc13a50cfc1dd2af47663ed2dbbe6aff92baa8836001600086815260200190815260200160002060405161098f929190611573565b60405180910390a182905092915050565b600260205281600052604060002081815481106109bc57600080fd5b9060005260206000209060030201600091509150508060000160009054906101000a900473ffffffffffffffffffffffffffffffffffffffff16908060010154908060020154905083565b60008060009054906101000a900473ffffffffffffffffffffffffffffffffffffffff16905090565b610a38610ed4565b73ffffffffffffffffffffffffffffffffffffffff16610a56610a07565b73ffffffffffffffffffffffffffffffffffffffff1614610aac576040517f08c379a0000000000000000000000000000000000000000000000000000000008152600401610aa3906112ad565b60405180910390fd5b80600460006101000a81548173ffffffffffffffffffffffffffffffffffffffff021916908373ffffffffffffffffffffffffffffffffffffffff16021790555050565b610af8610ed4565b73ffffffffffffffffffffffffffffffffffffffff16610b16610a07565b73ffffffffffffffffffffffffffffffffffffffff1614610b6c576040517f08c379a0000000000000000000000000000000000000000000000000000000008152600401610b63906112ad565b60405180910390fd5b600073ffffffffffffffffffffffffffffffffffffffff168173ffffffffffffffffffffffffffffffffffffffff161415610bdc576040517f08c379a0000000000000000000000000000000000000000000000000000000008152600401610bd39061160e565b60405180910390fd5b610be581610edc565b50565b610bf0610ed4565b73ffffffffffffffffffffffffffffffffffffffff16610c0e610a07565b73ffffffffffffffffffffffffffffffffffffffff1614610c64576040517f08c379a0000000000000000000000000000000000000000000000000000000008152600401610c5b906112ad565b60405180910390fd5b600460009054906101000a900473ffffffffffffffffffffffffffffffffffffffff1673ffffffffffffffffffffffffffffffffffffffff1663a9059cbb83836040518363ffffffff1660e01b8152600401610cc192919061135d565b6020604051808303816000875af1158015610ce0573d6000803e3d6000fd5b505050506040513d601f19601f82011682018060405250810190610d049190611330565b505050565b60006001600083815260200190815260200160002090506000429050600015158260040160009054906101000a900460ff16151514610d7d576040517f08c379a0000000000000000000000000000000000000000000000000000000008152600401610d7490611654565b60405180910390fd5b80826003015410610dc3576040517f08c379a0000000000000000000000000000000000000000000000000000000008152600401610dba90611654565b60405180910390fd5b600360009054906101000a900473ffffffffffffffffffffffffffffffffffffffff1673ffffffffffffffffffffffffffffffffffffffff166342842e0e308460000160000160009054906101000a900473ffffffffffffffffffffffffffffffffffffffff16866040518463ffffffff1660e01b8152600401610e49939291906112cd565b600060405180830381600087803b158015610e6357600080fd5b505af1158015610e77573d6000803e3d6000fd5b5050505060018260040160006101000a81548160ff0219169083151502179055507fddb556f1d2c1ec821e910b019d3685b229db152a0ecd517ca7e24b8bd713928983604051610ec79190611194565b60405180910390a1505050565b600033905090565b60008060009054906101000a900473ffffffffffffffffffffffffffffffffffffffff169050816000806101000a81548173ffffffffffffffffffffffffffffffffffffffff021916908373ffffffffffffffffffffffffffffffffffffffff1602179055508173ffffffffffffffffffffffffffffffffffffffff168173ffffffffffffffffffffffffffffffffffffffff167f8be0079c531659141344cd1fd0a4f28419497f9722a3daafe3b4186f6b6457e060405160405180910390a35050565b600080fd5b600073ffffffffffffffffffffffffffffffffffffffff82169050919050565b6000610fd082610fa5565b9050919050565b610fe081610fc5565b8114610feb57600080fd5b50565b600081359050610ffd81610fd7565b92915050565b60006020828403121561101957611018610fa0565b5b600061102784828501610fee565b91505092915050565b6000819050919050565b61104381611030565b811461104e57600080fd5b50565b6000813590506110608161103a565b92915050565b60006020828403121561107c5761107b610fa0565b5b600061108a84828501611051565b91505092915050565b61109c81610fc5565b82525050565b6110ab81611030565b82525050565b6060820160008201516110c76000850182611093565b5060208201516110da60208501826110a2565b5060408201516110ed60408501826110a2565b50505050565b6110fc81611030565b82525050565b60008115159050919050565b61111781611102565b82525050565b600060a08201905061113260008301866110b1565b61113f60608301856110f3565b61114c608083018461110e565b949350505050565b6000806040838503121561116b5761116a610fa0565b5b600061117985828601611051565b925050602061118a85828601611051565b9150509250929050565b60006020820190506111a960008301846110f3565b92915050565b6111b881610fc5565b82525050565b60006060820190506111d360008301866111af565b6111e060208301856110f3565b6111ed60408301846110f3565b949350505050565b600060208201905061120a60008301846111af565b92915050565b6000806040838503121561122757611226610fa0565b5b600061123585828601610fee565b925050602061124685828601611051565b9150509250929050565b600082825260208201905092915050565b7f4f776e61626c653a2063616c6c6572206973206e6f7420746865206f776e6572600082015250565b6000611297602083611250565b91506112a282611261565b602082019050919050565b600060208201905081810360008301526112c68161128a565b9050919050565b60006060820190506112e260008301866111af565b6112ef60208301856111af565b6112fc60408301846110f3565b949350505050565b61130d81611102565b811461131857600080fd5b50565b60008151905061132a81611304565b92915050565b60006020828403121561134657611345610fa0565b5b60006113548482850161131b565b91505092915050565b600060408201905061137260008301856111af565b61137f60208301846110f3565b9392505050565b60008160001c9050919050565b600073ffffffffffffffffffffffffffffffffffffffff82169050919050565b60006113c66113c183611386565b611393565b9050919050565b6000819050919050565b60006113ea6113e583611386565b6113cd565b9050919050565b606082016000808301549050611406816113b3565b6114136000860182611093565b5060018301549050611424816113d7565b61143160208601826110a2565b5060028301549050611442816113d7565b61144f60408601826110a2565b5050505050565b600060808201905061146b60008301856110f3565b61147860208301846113f1565b9392505050565b606082016000808301549050611494816113b3565b6114a16000860182611093565b50600183015490506114b2816113d7565b6114bf60208601826110a2565b50600283015490506114d0816113d7565b6114dd60408601826110a2565b5050505050565b600060ff82169050919050565b60006115046114ff83611386565b6114e4565b9050919050565b61151481611102565b82525050565b60a082016000808301611530600086018261147f565b5060038301549050611541816113d7565b61154e60608601826110a2565b506004830154905061155f816114f1565b61156c608086018261150b565b5050505050565b600060c08201905061158860008301856110f3565b611595602083018461151a565b9392505050565b7f4f776e61626c653a206e6577206f776e657220697320746865207a65726f206160008201527f6464726573730000000000000000000000000000000000000000000000000000602082015250565b60006115f8602683611250565b91506116038261159c565b604082019050919050565b60006020820190508181036000830152611627816115eb565b9050919050565b50565b600061163e600083611250565b91506116498261162e565b600082019050919050565b6000602082019050818103600083015261166d81611631565b905091905056fea2646970667358221220fa5ecc9f56439d1b2c5dc29715c1a829dd9ad2cd6a19018e8f5eacb1545c3ceb64736f6c634300080a0033",
  "immutableReferences": {},
  "source": "pragma solidity >=0.4.22 <0.9.0;\n\nimport \"@openzeppelin/contracts/access/Ownable.sol\";\nimport \"@openzeppelin/contracts/token/ERC721/extensions/IERC721Enumerable.sol\";\nimport \"@openzeppelin/contracts/token/ERC721/ERC721.sol\";\nimport \"@openzeppelin/contracts/token/ERC20/ERC20.sol\";\n\ncontract HumanAuction is Ownable {\n\n  event AddBid(uint tokenId, Bid bid);\n  event Execute(uint tokenId);\n  event AddAuction(uint tokenId, Auction auction);\n\n  struct Auction {\n    Bid lastBid;\n    uint deadline;\n    bool executed;\n  }\n\n  struct Bid {\n    address bidder;\n    uint balance;\n    uint time;\n  }\n\n  mapping(uint => Auction) public auctions;\n  mapping(uint => Bid[]) public bids;\n\n  ERC721 humanERC721;\n  ERC20 humanERC20;\n\n  constructor () {}\n\n  function setHumanERC721(address _address) public onlyOwner {\n    humanERC721 = ERC721(_address);\n  }\n\n  function setHumanERC20(address _address) public onlyOwner {\n    humanERC20 = ERC20(_address);\n  }\n\n  modifier onlyHumanOwner(uint _tokenId) {\n    require(msg.sender == humanERC721.ownerOf(_tokenId));\n    _;\n  }\n\n  function transferERC20(address _to, uint _balance) public onlyOwner {\n    humanERC20.transfer(_to, _balance);\n  }\n\n  function addAuction(uint _tokenId, uint deadline) public onlyOwner returns (uint) {\n    // deadline     require\n    humanERC721.transferFrom(msg.sender, address(this), _tokenId);\n    auctions[_tokenId] = Auction(Bid(msg.sender, 0, block.timestamp), deadline, false);\n    emit AddAuction(_tokenId, auctions[_tokenId]);\n    return _tokenId;\n  }\n\n  function bid(uint _tokenId, uint _balance) public {\n    Auction storage auction = auctions[_tokenId];\n    uint current = block.timestamp;\n    require(auction.deadline > current);\n    require(auction.lastBid.balance < _balance);\n    humanERC20.transferFrom(msg.sender, address(this), _balance);\n    humanERC20.transfer(auction.lastBid.bidder, auction.lastBid.balance); // \n    bids[_tokenId].push(auction.lastBid);\n    auction.lastBid = Bid(msg.sender, _balance, current);\n    emit AddBid(_tokenId, auction.lastBid);\n  }\n\n  function execute(uint _tokenId) public {\n    Auction storage auction = auctions[_tokenId];\n    uint current = block.timestamp;\n    require(auction.executed == false, \"\");\n    require(auction.deadline < current, \"\");\n    humanERC721.safeTransferFrom(address(this), auction.lastBid.bidder, _tokenId);\n    auction.executed = true;\n    emit Execute(_tokenId);\n  }\n}",
  "sourcePath": "/Users/klleon/workspace/blockchain/vhuman/contracts/HumanAuction.sol",
  "compiler": {
    "name": "solc",
    "version": "0.8.10+commit.fc410830.Emscripten.clang"
  },
  "schemaVersion": "3.4.3",
  "updatedAt": "2021-12-14T07:31:42.466Z",
  "networkType": "ethereum",
  "devdoc": {
    "kind": "dev",
    "methods": {
      "owner()": {
        "details": "Returns the address of the current owner."
      },
      "renounceOwnership()": {
        "details": "Leaves the contract without owner. It will not be possible to call `onlyOwner` functions anymore. Can only be called by the current owner. NOTE: Renouncing ownership will leave the contract without an owner, thereby removing any functionality that is only available to the owner."
      },
      "transferOwnership(address)": {
        "details": "Transfers ownership of the contract to a new account (`newOwner`). Can only be called by the current owner."
      }
    },
    "version": 1
  },
  "userdoc": {
    "kind": "user",
    "methods": {},
    "version": 1
  }
}