{
  "contractName": "HumanConverter",
  "abi": [
    {
      "inputs": [],
      "stateMutability": "nonpayable",
      "type": "constructor"
    },
    {
      "anonymous": false,
      "inputs": [
        {
          "indexed": false,
          "internalType": "address",
          "name": "converter",
          "type": "address"
        }
      ],
      "name": "AddConverter",
      "type": "event"
    },
    {
      "anonymous": false,
      "inputs": [
        {
          "indexed": false,
          "internalType": "uint256",
          "name": "requestId",
          "type": "uint256"
        },
        {
          "components": [
            {
              "internalType": "address",
              "name": "client",
              "type": "address"
            },
            {
              "internalType": "address",
              "name": "converter",
              "type": "address"
            },
            {
              "internalType": "string",
              "name": "sourceUri",
              "type": "string"
            },
            {
              "internalType": "string",
              "name": "humanNumber",
              "type": "string"
            },
            {
              "internalType": "string",
              "name": "resultUri",
              "type": "string"
            },
            {
              "internalType": "enum HumanConverter.STATUS",
              "name": "status",
              "type": "uint8"
            },
            {
              "internalType": "uint256",
              "name": "tokenId",
              "type": "uint256"
            },
            {
              "internalType": "uint256",
              "name": "date",
              "type": "uint256"
            },
            {
              "internalType": "bool",
              "name": "allowed",
              "type": "bool"
            }
          ],
          "indexed": false,
          "internalType": "struct HumanConverter.Request",
          "name": "request",
          "type": "tuple"
        }
      ],
      "name": "AddRequest",
      "type": "event"
    },
    {
      "anonymous": false,
      "inputs": [
        {
          "indexed": false,
          "internalType": "uint256",
          "name": "requestId",
          "type": "uint256"
        },
        {
          "components": [
            {
              "internalType": "address",
              "name": "client",
              "type": "address"
            },
            {
              "internalType": "address",
              "name": "converter",
              "type": "address"
            },
            {
              "internalType": "string",
              "name": "sourceUri",
              "type": "string"
            },
            {
              "internalType": "string",
              "name": "humanNumber",
              "type": "string"
            },
            {
              "internalType": "string",
              "name": "resultUri",
              "type": "string"
            },
            {
              "internalType": "enum HumanConverter.STATUS",
              "name": "status",
              "type": "uint8"
            },
            {
              "internalType": "uint256",
              "name": "tokenId",
              "type": "uint256"
            },
            {
              "internalType": "uint256",
              "name": "date",
              "type": "uint256"
            },
            {
              "internalType": "bool",
              "name": "allowed",
              "type": "bool"
            }
          ],
          "indexed": false,
          "internalType": "struct HumanConverter.Request",
          "name": "request",
          "type": "tuple"
        }
      ],
      "name": "ConvertAllow",
      "type": "event"
    },
    {
      "anonymous": false,
      "inputs": [
        {
          "indexed": false,
          "internalType": "uint256",
          "name": "requestId",
          "type": "uint256"
        },
        {
          "components": [
            {
              "internalType": "address",
              "name": "client",
              "type": "address"
            },
            {
              "internalType": "address",
              "name": "converter",
              "type": "address"
            },
            {
              "internalType": "string",
              "name": "sourceUri",
              "type": "string"
            },
            {
              "internalType": "string",
              "name": "humanNumber",
              "type": "string"
            },
            {
              "internalType": "string",
              "name": "resultUri",
              "type": "string"
            },
            {
              "internalType": "enum HumanConverter.STATUS",
              "name": "status",
              "type": "uint8"
            },
            {
              "internalType": "uint256",
              "name": "tokenId",
              "type": "uint256"
            },
            {
              "internalType": "uint256",
              "name": "date",
              "type": "uint256"
            },
            {
              "internalType": "bool",
              "name": "allowed",
              "type": "bool"
            }
          ],
          "indexed": false,
          "internalType": "struct HumanConverter.Request",
          "name": "request",
          "type": "tuple"
        }
      ],
      "name": "ConvertComplain",
      "type": "event"
    },
    {
      "anonymous": false,
      "inputs": [
        {
          "indexed": false,
          "internalType": "uint256",
          "name": "requestId",
          "type": "uint256"
        },
        {
          "components": [
            {
              "internalType": "address",
              "name": "client",
              "type": "address"
            },
            {
              "internalType": "address",
              "name": "converter",
              "type": "address"
            },
            {
              "internalType": "string",
              "name": "sourceUri",
              "type": "string"
            },
            {
              "internalType": "string",
              "name": "humanNumber",
              "type": "string"
            },
            {
              "internalType": "string",
              "name": "resultUri",
              "type": "string"
            },
            {
              "internalType": "enum HumanConverter.STATUS",
              "name": "status",
              "type": "uint8"
            },
            {
              "internalType": "uint256",
              "name": "tokenId",
              "type": "uint256"
            },
            {
              "internalType": "uint256",
              "name": "date",
              "type": "uint256"
            },
            {
              "internalType": "bool",
              "name": "allowed",
              "type": "bool"
            }
          ],
          "indexed": false,
          "internalType": "struct HumanConverter.Request",
          "name": "request",
          "type": "tuple"
        }
      ],
      "name": "ConvertConfirm",
      "type": "event"
    },
    {
      "anonymous": false,
      "inputs": [
        {
          "indexed": false,
          "internalType": "uint256",
          "name": "requestId",
          "type": "uint256"
        },
        {
          "components": [
            {
              "internalType": "address",
              "name": "client",
              "type": "address"
            },
            {
              "internalType": "address",
              "name": "converter",
              "type": "address"
            },
            {
              "internalType": "string",
              "name": "sourceUri",
              "type": "string"
            },
            {
              "internalType": "string",
              "name": "humanNumber",
              "type": "string"
            },
            {
              "internalType": "string",
              "name": "resultUri",
              "type": "string"
            },
            {
              "internalType": "enum HumanConverter.STATUS",
              "name": "status",
              "type": "uint8"
            },
            {
              "internalType": "uint256",
              "name": "tokenId",
              "type": "uint256"
            },
            {
              "internalType": "uint256",
              "name": "date",
              "type": "uint256"
            },
            {
              "internalType": "bool",
              "name": "allowed",
              "type": "bool"
            }
          ],
          "indexed": false,
          "internalType": "struct HumanConverter.Request",
          "name": "request",
          "type": "tuple"
        }
      ],
      "name": "ConvertStart",
      "type": "event"
    },
    {
      "anonymous": false,
      "inputs": [
        {
          "indexed": false,
          "internalType": "uint256",
          "name": "requestId",
          "type": "uint256"
        },
        {
          "components": [
            {
              "internalType": "address",
              "name": "client",
              "type": "address"
            },
            {
              "internalType": "address",
              "name": "converter",
              "type": "address"
            },
            {
              "internalType": "string",
              "name": "sourceUri",
              "type": "string"
            },
            {
              "internalType": "string",
              "name": "humanNumber",
              "type": "string"
            },
            {
              "internalType": "string",
              "name": "resultUri",
              "type": "string"
            },
            {
              "internalType": "enum HumanConverter.STATUS",
              "name": "status",
              "type": "uint8"
            },
            {
              "internalType": "uint256",
              "name": "tokenId",
              "type": "uint256"
            },
            {
              "internalType": "uint256",
              "name": "date",
              "type": "uint256"
            },
            {
              "internalType": "bool",
              "name": "allowed",
              "type": "bool"
            }
          ],
          "indexed": false,
          "internalType": "struct HumanConverter.Request",
          "name": "request",
          "type": "tuple"
        }
      ],
      "name": "ConvertSuccess",
      "type": "event"
    },
    {
      "anonymous": false,
      "inputs": [
        {
          "indexed": true,
          "internalType": "address",
          "name": "previousOwner",
          "type": "address"
        },
        {
          "indexed": true,
          "internalType": "address",
          "name": "newOwner",
          "type": "address"
        }
      ],
      "name": "OwnershipTransferred",
      "type": "event"
    },
    {
      "anonymous": false,
      "inputs": [
        {
          "indexed": false,
          "internalType": "address",
          "name": "converter",
          "type": "address"
        }
      ],
      "name": "RemoveConverter",
      "type": "event"
    },
    {
      "anonymous": false,
      "inputs": [
        {
          "indexed": false,
          "internalType": "uint256",
          "name": "balance",
          "type": "uint256"
        }
      ],
      "name": "SetConverterFee",
      "type": "event"
    },
    {
      "anonymous": false,
      "inputs": [
        {
          "indexed": false,
          "internalType": "uint256",
          "name": "tokenId",
          "type": "uint256"
        },
        {
          "indexed": false,
          "internalType": "uint256",
          "name": "fee",
          "type": "uint256"
        },
        {
          "indexed": false,
          "internalType": "bool",
          "name": "manual",
          "type": "bool"
        }
      ],
      "name": "Stake",
      "type": "event"
    },
    {
      "anonymous": false,
      "inputs": [
        {
          "indexed": false,
          "internalType": "uint256",
          "name": "tokenId",
          "type": "uint256"
        }
      ],
      "name": "Unstake",
      "type": "event"
    },
    {
      "anonymous": false,
      "inputs": [
        {
          "indexed": false,
          "internalType": "uint256",
          "name": "tokenId",
          "type": "uint256"
        },
        {
          "indexed": false,
          "internalType": "address",
          "name": "user",
          "type": "address"
        },
        {
          "indexed": false,
          "internalType": "uint256",
          "name": "balance",
          "type": "uint256"
        }
      ],
      "name": "Use",
      "type": "event"
    },
    {
      "anonymous": false,
      "inputs": [
        {
          "indexed": false,
          "internalType": "uint256",
          "name": "tokenId",
          "type": "uint256"
        },
        {
          "indexed": false,
          "internalType": "uint256",
          "name": "balance",
          "type": "uint256"
        }
      ],
      "name": "Withdraw",
      "type": "event"
    },
    {
      "anonymous": false,
      "inputs": [
        {
          "indexed": false,
          "internalType": "address",
          "name": "converter",
          "type": "address"
        },
        {
          "indexed": false,
          "internalType": "uint256",
          "name": "balance",
          "type": "uint256"
        }
      ],
      "name": "WithdrawConverter",
      "type": "event"
    },
    {
      "inputs": [
        {
          "internalType": "address",
          "name": "",
          "type": "address"
        }
      ],
      "name": "converter",
      "outputs": [
        {
          "internalType": "uint256",
          "name": "total",
          "type": "uint256"
        },
        {
          "internalType": "uint256",
          "name": "balance",
          "type": "uint256"
        },
        {
          "internalType": "uint256",
          "name": "convertCount",
          "type": "uint256"
        },
        {
          "internalType": "uint256",
          "name": "complainCount",
          "type": "uint256"
        },
        {
          "internalType": "bool",
          "name": "active",
          "type": "bool"
        }
      ],
      "stateMutability": "view",
      "type": "function",
      "constant": true
    },
    {
      "inputs": [],
      "name": "owner",
      "outputs": [
        {
          "internalType": "address",
          "name": "",
          "type": "address"
        }
      ],
      "stateMutability": "view",
      "type": "function",
      "constant": true
    },
    {
      "inputs": [],
      "name": "renounceOwnership",
      "outputs": [],
      "stateMutability": "nonpayable",
      "type": "function"
    },
    {
      "inputs": [
        {
          "internalType": "uint256",
          "name": "",
          "type": "uint256"
        }
      ],
      "name": "requests",
      "outputs": [
        {
          "internalType": "address",
          "name": "client",
          "type": "address"
        },
        {
          "internalType": "address",
          "name": "converter",
          "type": "address"
        },
        {
          "internalType": "string",
          "name": "sourceUri",
          "type": "string"
        },
        {
          "internalType": "string",
          "name": "humanNumber",
          "type": "string"
        },
        {
          "internalType": "string",
          "name": "resultUri",
          "type": "string"
        },
        {
          "internalType": "enum HumanConverter.STATUS",
          "name": "status",
          "type": "uint8"
        },
        {
          "internalType": "uint256",
          "name": "tokenId",
          "type": "uint256"
        },
        {
          "internalType": "uint256",
          "name": "date",
          "type": "uint256"
        },
        {
          "internalType": "bool",
          "name": "allowed",
          "type": "bool"
        }
      ],
      "stateMutability": "view",
      "type": "function",
      "constant": true
    },
    {
      "inputs": [
        {
          "internalType": "uint256",
          "name": "",
          "type": "uint256"
        },
        {
          "internalType": "uint256",
          "name": "",
          "type": "uint256"
        }
      ],
      "name": "requestsOfHuman",
      "outputs": [
        {
          "internalType": "uint256",
          "name": "",
          "type": "uint256"
        }
      ],
      "stateMutability": "view",
      "type": "function",
      "constant": true
    },
    {
      "inputs": [
        {
          "internalType": "address",
          "name": "_address",
          "type": "address"
        }
      ],
      "name": "setHumanERC20",
      "outputs": [],
      "stateMutability": "nonpayable",
      "type": "function"
    },
    {
      "inputs": [
        {
          "internalType": "address",
          "name": "_address",
          "type": "address"
        }
      ],
      "name": "setHumanERC721",
      "outputs": [],
      "stateMutability": "nonpayable",
      "type": "function"
    },
    {
      "inputs": [
        {
          "internalType": "address",
          "name": "_address",
          "type": "address"
        }
      ],
      "name": "setSHumanERC721",
      "outputs": [],
      "stateMutability": "nonpayable",
      "type": "function"
    },
    {
      "inputs": [
        {
          "internalType": "uint256",
          "name": "_tokenId",
          "type": "uint256"
        },
        {
          "internalType": "uint256",
          "name": "fee",
          "type": "uint256"
        },
        {
          "internalType": "bool",
          "name": "manual",
          "type": "bool"
        }
      ],
      "name": "stake",
      "outputs": [],
      "stateMutability": "nonpayable",
      "type": "function"
    },
    {
      "inputs": [
        {
          "internalType": "uint256",
          "name": "",
          "type": "uint256"
        }
      ],
      "name": "stakes",
      "outputs": [
        {
          "internalType": "uint256",
          "name": "fee",
          "type": "uint256"
        },
        {
          "internalType": "uint256",
          "name": "balance",
          "type": "uint256"
        },
        {
          "internalType": "bool",
          "name": "isManual",
          "type": "bool"
        },
        {
          "internalType": "bool",
          "name": "isExist",
          "type": "bool"
        }
      ],
      "stateMutability": "view",
      "type": "function",
      "constant": true
    },
    {
      "inputs": [
        {
          "internalType": "address",
          "name": "newOwner",
          "type": "address"
        }
      ],
      "name": "transferOwnership",
      "outputs": [],
      "stateMutability": "nonpayable",
      "type": "function"
    },
    {
      "inputs": [
        {
          "internalType": "uint256",
          "name": "_tokenId",
          "type": "uint256"
        }
      ],
      "name": "unstake",
      "outputs": [],
      "stateMutability": "nonpayable",
      "type": "function"
    },
    {
      "inputs": [
        {
          "internalType": "uint256",
          "name": "_tokenId",
          "type": "uint256"
        }
      ],
      "name": "use",
      "outputs": [],
      "stateMutability": "nonpayable",
      "type": "function"
    },
    {
      "inputs": [
        {
          "internalType": "uint256",
          "name": "_tokenId",
          "type": "uint256"
        },
        {
          "internalType": "uint256",
          "name": "_balance",
          "type": "uint256"
        }
      ],
      "name": "withdraw",
      "outputs": [],
      "stateMutability": "nonpayable",
      "type": "function"
    },
    {
      "inputs": [
        {
          "internalType": "address",
          "name": "operator",
          "type": "address"
        },
        {
          "internalType": "address",
          "name": "from",
          "type": "address"
        },
        {
          "internalType": "uint256",
          "name": "tokenId",
          "type": "uint256"
        },
        {
          "internalType": "bytes",
          "name": "data",
          "type": "bytes"
        }
      ],
      "name": "onERC721Received",
      "outputs": [
        {
          "internalType": "bytes4",
          "name": "",
          "type": "bytes4"
        }
      ],
      "stateMutability": "nonpayable",
      "type": "function"
    },
    {
      "inputs": [],
      "name": "addConverter",
      "outputs": [],
      "stateMutability": "nonpayable",
      "type": "function"
    },
    {
      "inputs": [
        {
          "internalType": "address",
          "name": "_address",
          "type": "address"
        }
      ],
      "name": "removeConverter",
      "outputs": [],
      "stateMutability": "nonpayable",
      "type": "function"
    },
    {
      "inputs": [
        {
          "internalType": "address",
          "name": "_address",
          "type": "address"
        }
      ],
      "name": "setHumanERC20Staker",
      "outputs": [],
      "stateMutability": "nonpayable",
      "type": "function"
    },
    {
      "inputs": [
        {
          "internalType": "uint256",
          "name": "_balance",
          "type": "uint256"
        }
      ],
      "name": "setConverterFee",
      "outputs": [],
      "stateMutability": "nonpayable",
      "type": "function"
    },
    {
      "inputs": [
        {
          "internalType": "uint256",
          "name": "_balance",
          "type": "uint256"
        }
      ],
      "name": "withdrawConverter",
      "outputs": [],
      "stateMutability": "nonpayable",
      "type": "function"
    },
    {
      "inputs": [
        {
          "internalType": "uint256",
          "name": "_tokenId",
          "type": "uint256"
        },
        {
          "internalType": "string",
          "name": "_sourceUri",
          "type": "string"
        },
        {
          "internalType": "address",
          "name": "_converter",
          "type": "address"
        },
        {
          "internalType": "string",
          "name": "_humanNumber",
          "type": "string"
        }
      ],
      "name": "request",
      "outputs": [],
      "stateMutability": "nonpayable",
      "type": "function"
    },
    {
      "inputs": [
        {
          "internalType": "uint256",
          "name": "_requestId",
          "type": "uint256"
        }
      ],
      "name": "allow",
      "outputs": [],
      "stateMutability": "nonpayable",
      "type": "function"
    },
    {
      "inputs": [
        {
          "internalType": "uint256",
          "name": "_requestId",
          "type": "uint256"
        }
      ],
      "name": "start",
      "outputs": [],
      "stateMutability": "nonpayable",
      "type": "function"
    },
    {
      "inputs": [
        {
          "internalType": "uint256",
          "name": "_requestId",
          "type": "uint256"
        },
        {
          "internalType": "string",
          "name": "_resultUri",
          "type": "string"
        }
      ],
      "name": "success",
      "outputs": [],
      "stateMutability": "nonpayable",
      "type": "function"
    },
    {
      "inputs": [
        {
          "internalType": "uint256",
          "name": "_requestId",
          "type": "uint256"
        }
      ],
      "name": "confirm",
      "outputs": [],
      "stateMutability": "nonpayable",
      "type": "function"
    },
    {
      "inputs": [
        {
          "internalType": "uint256",
          "name": "_requestId",
          "type": "uint256"
        }
      ],
      "name": "complain",
      "outputs": [],
      "stateMutability": "nonpayable",
      "type": "function"
    }
  ],
  "bytecode": "0x60806040523480156200001157600080fd5b5062000032620000266200003860201b60201c565b6200004060201b60201c565b62000104565b600033905090565b60008060009054906101000a900473ffffffffffffffffffffffffffffffffffffffff169050816000806101000a81548173ffffffffffffffffffffffffffffffffffffffff021916908373ffffffffffffffffffffffffffffffffffffffff1602179055508173ffffffffffffffffffffffffffffffffffffffff168173ffffffffffffffffffffffffffffffffffffffff167f8be0079c531659141344cd1fd0a4f28419497f9722a3daafe3b4186f6b6457e060405160405180910390a35050565b6138c480620001146000396000f3fe608060405234801561001057600080fd5b506004361061018e5760003560e01c80638fb4529c116100de578063ab5b445611610097578063e3be1b0311610071578063e3be1b0314610438578063ec5a90e714610454578063f12f77fc14610484578063f2fde38b146104a05761018e565b8063ab5b4456146103cd578063ba0179b5146103e9578063d5a44f86146104055761018e565b80638fb4529c14610325578063905bf0311461034157806395805dad1461035d57806395e2360e146103795780639e1188ff146103955780639e76a007146103b15761018e565b8063441a3e701161014b5780636e0b4f90116101255780636e0b4f9014610291578063715018a6146102c557806381d12c58146102cf5780638da5cb5b146103075761018e565b8063441a3e701461023d57806345dbf1b514610259578063561b2463146102755761018e565b806302a8b3bc14610193578063150b7a021461019d57806321b81063146101cd578063284f0923146101e95780632e17de781461020557806340a6785014610221575b600080fd5b61019b6104bc565b005b6101b760048036038101906101b291906128ff565b6106c2565b6040516101c491906129c2565b60405180910390f35b6101e760048036038101906101e291906129dd565b6106d7565b005b61020360048036038101906101fe91906129dd565b6107b3565b005b61021f600480360381019061021a91906129dd565b6108f0565b005b61023b60048036038101906102369190612a0a565b610c28565b005b61025760048036038101906102529190612a37565b610ce8565b005b610273600480360381019061026e91906129dd565b610edf565b005b61028f600480360381019061028a9190612aaf565b610f9c565b005b6102ab60048036038101906102a69190612a0a565b611262565b6040516102bc959493929190612b20565b60405180910390f35b6102cd6112a5565b005b6102e960048036038101906102e491906129dd565b61132d565b6040516102fe99989796959493929190612c92565b60405180910390f35b61030f61157d565b60405161031c9190612d34565b60405180910390f35b61033f600480360381019061033a9190612a0a565b6115a6565b005b61035b600480360381019061035691906129dd565b611666565b005b610377600480360381019061037291906129dd565b6117ec565b005b610393600480360381019061038e9190612e7f565b611a3a565b005b6103af60048036038101906103aa9190612a0a565b611edc565b005b6103cb60048036038101906103c69190612a0a565b611f9c565b005b6103e760048036038101906103e291906129dd565b61207c565b005b61040360048036038101906103fe91906129dd565b61219c565b005b61041f600480360381019061041a91906129dd565b612341565b60405161042f9493929190612f1e565b60405180910390f35b610452600480360381019061044d9190612f63565b61238b565b005b61046e60048036038101906104699190612a37565b61249a565b60405161047b9190612fbf565b60405180910390f35b61049e60048036038101906104999190612a0a565b6124cb565b005b6104ba60048036038101906104b59190612a0a565b61258b565b005b6001600760003373ffffffffffffffffffffffffffffffffffffffff1673ffffffffffffffffffffffffffffffffffffffff1681526020019081526020016000206000015410610541576040517f08c379a000000000000000000000000000000000000000000000000000000000815260040161053890613026565b60405180910390fd5b600460009054906101000a900473ffffffffffffffffffffffffffffffffffffffff1673ffffffffffffffffffffffffffffffffffffffff166323b872dd33600660009054906101000a900473ffffffffffffffffffffffffffffffffffffffff166005546040518463ffffffff1660e01b81526004016105c493929190613046565b6020604051808303816000875af11580156105e3573d6000803e3d6000fd5b505050506040513d601f19601f820116820180604052508101906106079190613092565b506040518060a001604052806000815260200160008152602001600081526020016000815260200160011515815250600760003373ffffffffffffffffffffffffffffffffffffffff1673ffffffffffffffffffffffffffffffffffffffff1681526020019081526020016000206000820151816000015560208201518160010155604082015181600201556060820151816003015560808201518160040160006101000a81548160ff021916908315150217905550905050565b600063150b7a0260e01b905095945050505050565b6000600882815481106106ed576106ec6130bf565b5b906000526020600020906009020190503373ffffffffffffffffffffffffffffffffffffffff168160000160009054906101000a900473ffffffffffffffffffffffffffffffffffffffff1673ffffffffffffffffffffffffffffffffffffffff161461075957600080fd5b60018160080160006101000a81548160ff0219169083151502179055507f0edfbe1eae591db236fee71ac5399007287d695564b5fb1d64a0b5050a96ee6b82826040516107a79291906133fd565b60405180910390a15050565b6000600882815481106107c9576107c86130bf565b5b906000526020600020906009020190503373ffffffffffffffffffffffffffffffffffffffff168160000160009054906101000a900473ffffffffffffffffffffffffffffffffffffffff1673ffffffffffffffffffffffffffffffffffffffff161461083557600080fd5b6001600760008360010160009054906101000a900473ffffffffffffffffffffffffffffffffffffffff1673ffffffffffffffffffffffffffffffffffffffff1673ffffffffffffffffffffffffffffffffffffffff16815260200190815260200160002060030160008282546108ac919061345c565b925050819055507f263e0a7724d4f12ff85f69b75291bf438a7d67ea6199ad69523d23c54c1e773d82826040516108e49291906133fd565b60405180910390a15050565b80600360009054906101000a900473ffffffffffffffffffffffffffffffffffffffff1673ffffffffffffffffffffffffffffffffffffffff16636352211e826040518263ffffffff1660e01b815260040161094c9190612fbf565b602060405180830381865afa158015610969573d6000803e3d6000fd5b505050506040513d601f19601f8201168201806040525081019061098d91906134c7565b73ffffffffffffffffffffffffffffffffffffffff163373ffffffffffffffffffffffffffffffffffffffff16146109c457600080fd5b6000600160008481526020019081526020016000209050600460009054906101000a900473ffffffffffffffffffffffffffffffffffffffff1673ffffffffffffffffffffffffffffffffffffffff1663a9059cbb3383600101546040518363ffffffff1660e01b8152600401610a3c9291906134f4565b6020604051808303816000875af1158015610a5b573d6000803e3d6000fd5b505050506040513d601f19601f82011682018060405250810190610a7f9190613092565b50600260009054906101000a900473ffffffffffffffffffffffffffffffffffffffff1673ffffffffffffffffffffffffffffffffffffffff166342842e0e3033866040518463ffffffff1660e01b8152600401610adf93929190613046565b600060405180830381600087803b158015610af957600080fd5b505af1158015610b0d573d6000803e3d6000fd5b50505050600360009054906101000a900473ffffffffffffffffffffffffffffffffffffffff1673ffffffffffffffffffffffffffffffffffffffff166342966c68846040518263ffffffff1660e01b8152600401610b6c9190612fbf565b600060405180830381600087803b158015610b8657600080fd5b505af1158015610b9a573d6000803e3d6000fd5b505050506001600084815260200190815260200160002060008082016000905560018201600090556002820160006101000a81549060ff02191690556002820160016101000a81549060ff021916905550507ff1f1db1ecefb0a90b3cd6a1903d29374b4a935df69fd25c7fc6ed397d3683c2683604051610c1b9190612fbf565b60405180910390a1505050565b610c30612683565b73ffffffffffffffffffffffffffffffffffffffff16610c4e61157d565b73ffffffffffffffffffffffffffffffffffffffff1614610ca4576040517f08c379a0000000000000000000000000000000000000000000000000000000008152600401610c9b90613569565b60405180910390fd5b80600260006101000a81548173ffffffffffffffffffffffffffffffffffffffff021916908373ffffffffffffffffffffffffffffffffffffffff16021790555050565b81600360009054906101000a900473ffffffffffffffffffffffffffffffffffffffff1673ffffffffffffffffffffffffffffffffffffffff16636352211e826040518263ffffffff1660e01b8152600401610d449190612fbf565b602060405180830381865afa158015610d61573d6000803e3d6000fd5b505050506040513d601f19601f82011682018060405250810190610d8591906134c7565b73ffffffffffffffffffffffffffffffffffffffff163373ffffffffffffffffffffffffffffffffffffffff1614610dbc57600080fd5b60006001600085815260200190815260200160002090508281600101541015610de457600080fd5b82816001016000828254610df89190613589565b92505081905550600460009054906101000a900473ffffffffffffffffffffffffffffffffffffffff1673ffffffffffffffffffffffffffffffffffffffff1663a9059cbb33856040518363ffffffff1660e01b8152600401610e5c9291906134f4565b6020604051808303816000875af1158015610e7b573d6000803e3d6000fd5b505050506040513d601f19601f82011682018060405250810190610e9f9190613092565b507f56ca301a9219608c91e7bcee90e083c19671d2cdcc96752c7af291cee5f9c8c88484604051610ed19291906135bd565b60405180910390a150505050565b610ee7612683565b73ffffffffffffffffffffffffffffffffffffffff16610f0561157d565b73ffffffffffffffffffffffffffffffffffffffff1614610f5b576040517f08c379a0000000000000000000000000000000000000000000000000000000008152600401610f5290613569565b60405180910390fd5b806005819055507fbf7af57d2263d871d51856d7f31c6dcf3fe9125900a235a6dae85121b803a48d81604051610f919190612fbf565b60405180910390a150565b82600260009054906101000a900473ffffffffffffffffffffffffffffffffffffffff1673ffffffffffffffffffffffffffffffffffffffff16636352211e826040518263ffffffff1660e01b8152600401610ff89190612fbf565b602060405180830381865afa158015611015573d6000803e3d6000fd5b505050506040513d601f19601f8201168201806040525081019061103991906134c7565b73ffffffffffffffffffffffffffffffffffffffff163373ffffffffffffffffffffffffffffffffffffffff161461107057600080fd5b600260009054906101000a900473ffffffffffffffffffffffffffffffffffffffff1673ffffffffffffffffffffffffffffffffffffffff166342842e0e3330876040518463ffffffff1660e01b81526004016110cf93929190613046565b600060405180830381600087803b1580156110e957600080fd5b505af11580156110fd573d6000803e3d6000fd5b5050505060405180608001604052808481526020016000815260200183151581526020016001151581525060016000868152602001908152602001600020600082015181600001556020820151816001015560408201518160020160006101000a81548160ff02191690831515021790555060608201518160020160016101000a81548160ff021916908315150217905550905050600360009054906101000a900473ffffffffffffffffffffffffffffffffffffffff1673ffffffffffffffffffffffffffffffffffffffff1663a144819433866040518363ffffffff1660e01b81526004016111ef9291906134f4565b600060405180830381600087803b15801561120957600080fd5b505af115801561121d573d6000803e3d6000fd5b505050507fa704e351f12b57dc7d7b944f2ab3be36907a92f82c6cb18f383aa72c33f8c987848484604051611254939291906135e6565b60405180910390a150505050565b60076020528060005260406000206000915090508060000154908060010154908060020154908060030154908060040160009054906101000a900460ff16905085565b6112ad612683565b73ffffffffffffffffffffffffffffffffffffffff166112cb61157d565b73ffffffffffffffffffffffffffffffffffffffff1614611321576040517f08c379a000000000000000000000000000000000000000000000000000000000815260040161131890613569565b60405180910390fd5b61132b600061268b565b565b6008818154811061133d57600080fd5b90600052602060002090600902016000915090508060000160009054906101000a900473ffffffffffffffffffffffffffffffffffffffff16908060010160009054906101000a900473ffffffffffffffffffffffffffffffffffffffff16908060020180546113ac90613173565b80601f01602080910402602001604051908101604052809291908181526020018280546113d890613173565b80156114255780601f106113fa57610100808354040283529160200191611425565b820191906000526020600020905b81548152906001019060200180831161140857829003601f168201915b50505050509080600301805461143a90613173565b80601f016020809104026020016040519081016040528092919081815260200182805461146690613173565b80156114b35780601f10611488576101008083540402835291602001916114b3565b820191906000526020600020905b81548152906001019060200180831161149657829003601f168201915b5050505050908060040180546114c890613173565b80601f01602080910402602001604051908101604052809291908181526020018280546114f490613173565b80156115415780601f1061151657610100808354040283529160200191611541565b820191906000526020600020905b81548152906001019060200180831161152457829003601f168201915b5050505050908060050160009054906101000a900460ff16908060060154908060070154908060080160009054906101000a900460ff16905089565b60008060009054906101000a900473ffffffffffffffffffffffffffffffffffffffff16905090565b6115ae612683565b73ffffffffffffffffffffffffffffffffffffffff166115cc61157d565b73ffffffffffffffffffffffffffffffffffffffff1614611622576040517f08c379a000000000000000000000000000000000000000000000000000000000815260040161161990613569565b60405180910390fd5b80600460006101000a81548173ffffffffffffffffffffffffffffffffffffffff021916908373ffffffffffffffffffffffffffffffffffffffff16021790555050565b80600760003373ffffffffffffffffffffffffffffffffffffffff1673ffffffffffffffffffffffffffffffffffffffff16815260200190815260200160002060010154116116b457600080fd5b80600760003373ffffffffffffffffffffffffffffffffffffffff1673ffffffffffffffffffffffffffffffffffffffff16815260200190815260200160002060010160008282546117069190613589565b92505081905550600460009054906101000a900473ffffffffffffffffffffffffffffffffffffffff1673ffffffffffffffffffffffffffffffffffffffff166323b872dd3033846040518463ffffffff1660e01b815260040161176c93929190613046565b6020604051808303816000875af115801561178b573d6000803e3d6000fd5b505050506040513d601f19601f820116820180604052508101906117af9190613092565b507fcc72340b5193e503ff98cb04bceb47a22a85846ab7ab1aafd5a5e0ad75495f1e33826040516117e19291906134f4565b60405180910390a150565b60011515600760003373ffffffffffffffffffffffffffffffffffffffff1673ffffffffffffffffffffffffffffffffffffffff16815260200190815260200160002060040160009054906101000a900460ff1615151461184c57600080fd5b600060088281548110611862576118616130bf565b5b90600052602060002090600902019050600115158160080160009054906101000a900460ff1615151461189457600080fd5b600060068111156118a8576118a7612c1b565b5b8160050160009054906101000a900460ff1660068111156118cc576118cb612c1b565b5b146118d657600080fd5b600073ffffffffffffffffffffffffffffffffffffffff168160010160009054906101000a900473ffffffffffffffffffffffffffffffffffffffff1673ffffffffffffffffffffffffffffffffffffffff16148061198457503373ffffffffffffffffffffffffffffffffffffffff168160010160009054906101000a900473ffffffffffffffffffffffffffffffffffffffff1673ffffffffffffffffffffffffffffffffffffffff16145b61198d57600080fd5b60018160050160006101000a81548160ff021916908360068111156119b5576119b4612c1b565b5b0217905550338160010160006101000a81548173ffffffffffffffffffffffffffffffffffffffff021916908373ffffffffffffffffffffffffffffffffffffffff1602179055507f8269f832c8a0082ad2ce80c8ba52f2ee343d1638d7ce33f69ad26a82368d33d68282604051611a2e9291906133fd565b60405180910390a15050565b600073ffffffffffffffffffffffffffffffffffffffff16600360009054906101000a900473ffffffffffffffffffffffffffffffffffffffff1673ffffffffffffffffffffffffffffffffffffffff16636352211e866040518263ffffffff1660e01b8152600401611aad9190612fbf565b602060405180830381865afa158015611aca573d6000803e3d6000fd5b505050506040513d601f19601f82011682018060405250810190611aee91906134c7565b73ffffffffffffffffffffffffffffffffffffffff1614611b1757611b128461207c565b611c21565b3373ffffffffffffffffffffffffffffffffffffffff16600260009054906101000a900473ffffffffffffffffffffffffffffffffffffffff1673ffffffffffffffffffffffffffffffffffffffff16636352211e866040518263ffffffff1660e01b8152600401611b899190612fbf565b602060405180830381865afa158015611ba6573d6000803e3d6000fd5b505050506040513d601f19601f82011682018060405250810190611bca91906134c7565b73ffffffffffffffffffffffffffffffffffffffff1614611c20576040517f08c379a0000000000000000000000000000000000000000000000000000000008152600401611c1790613669565b60405180910390fd5b5b60006001600086815260200190815260200160002060020160009054906101000a900460ff1615905060006040518061012001604052803373ffffffffffffffffffffffffffffffffffffffff1681526020018573ffffffffffffffffffffffffffffffffffffffff16815260200186815260200184815260200160405180602001604052806000815250815260200160006006811115611cc557611cc4612c1b565b5b8152602001878152602001428152602001831515815250905060006008805490509050600882908060018154018082558091505060019003906000526020600020906009020160009091909190915060008201518160000160006101000a81548173ffffffffffffffffffffffffffffffffffffffff021916908373ffffffffffffffffffffffffffffffffffffffff16021790555060208201518160010160006101000a81548173ffffffffffffffffffffffffffffffffffffffff021916908373ffffffffffffffffffffffffffffffffffffffff1602179055506040820151816002019080519060200190611dbe92919061274f565b506060820151816003019080519060200190611ddb92919061274f565b506080820151816004019080519060200190611df892919061274f565b5060a08201518160050160006101000a81548160ff02191690836006811115611e2457611e23612c1b565b5b021790555060c0820151816006015560e082015181600701556101008201518160080160006101000a81548160ff0219169083151502179055505050600960008881526020019081526020016000208190806001815401808255809150506001900390600052602060002001600090919091909150557f84c8ed21c52213d547939a72947b353c403d6eb115f916cc396d01286bfc13208183604051611ecb929190613795565b60405180910390a150505050505050565b611ee4612683565b73ffffffffffffffffffffffffffffffffffffffff16611f0261157d565b73ffffffffffffffffffffffffffffffffffffffff1614611f58576040517f08c379a0000000000000000000000000000000000000000000000000000000008152600401611f4f90613569565b60405180910390fd5b80600360006101000a81548173ffffffffffffffffffffffffffffffffffffffff021916908373ffffffffffffffffffffffffffffffffffffffff16021790555050565b611fa4612683565b73ffffffffffffffffffffffffffffffffffffffff16611fc261157d565b73ffffffffffffffffffffffffffffffffffffffff1614612018576040517f08c379a000000000000000000000000000000000000000000000000000000000815260040161200f90613569565b60405180910390fd5b6000600760008373ffffffffffffffffffffffffffffffffffffffff1673ffffffffffffffffffffffffffffffffffffffff168152602001908152602001600020905060008160040160006101000a81548160ff0219169083151502179055505050565b6000600160008381526020019081526020016000209050600460009054906101000a900473ffffffffffffffffffffffffffffffffffffffff1673ffffffffffffffffffffffffffffffffffffffff166323b872dd333084600001546040518463ffffffff1660e01b81526004016120f693929190613046565b6020604051808303816000875af1158015612115573d6000803e3d6000fd5b505050506040513d601f19601f820116820180604052508101906121399190613092565b508060000154816001016000828254612152919061345c565b925050819055507fadd3d3c21c3dc2d229b03bad547c2e7de82af88fa5b935eb3d08fb6de2ad9d4f82338360000154604051612190939291906137c5565b60405180910390a15050565b6000600882815481106121b2576121b16130bf565b5b906000526020600020906009020190503373ffffffffffffffffffffffffffffffffffffffff168160000160009054906101000a900473ffffffffffffffffffffffffffffffffffffffff1673ffffffffffffffffffffffffffffffffffffffff161461221e57600080fd5b6001600760008360010160009054906101000a900473ffffffffffffffffffffffffffffffffffffffff1673ffffffffffffffffffffffffffffffffffffffff1673ffffffffffffffffffffffffffffffffffffffff1681526020019081526020016000206002016000828254612295919061345c565b9250508190555060068160050160006101000a81548160ff021916908360068111156122c4576122c3612c1b565b5b021790555060006001600083600601548152602001908152602001600020905080600001548160010160008282546122fc919061345c565b925050819055507fcefa1971c280a21f4b4f039ee1e7529e81fdcb19f30c5f0a3a696fb033abdf8d83836040516123349291906133fd565b60405180910390a1505050565b60016020528060005260406000206000915090508060000154908060010154908060020160009054906101000a900460ff16908060020160019054906101000a900460ff16905084565b6000600883815481106123a1576123a06130bf565b5b906000526020600020906009020190503373ffffffffffffffffffffffffffffffffffffffff168160010160009054906101000a900473ffffffffffffffffffffffffffffffffffffffff1673ffffffffffffffffffffffffffffffffffffffff161461240d57600080fd5b60028160050160006101000a81548160ff0219169083600681111561243557612434612c1b565b5b02179055508181600401908051906020019061245292919061274f565b504281600701819055507f75779490f3089b90395b01e8f88ea6cf696cefbba7e238a8fc19cb26eee740fa838260405161248d9291906133fd565b60405180910390a1505050565b600960205281600052604060002081815481106124b657600080fd5b90600052602060002001600091509150505481565b6124d3612683565b73ffffffffffffffffffffffffffffffffffffffff166124f161157d565b73ffffffffffffffffffffffffffffffffffffffff1614612547576040517f08c379a000000000000000000000000000000000000000000000000000000000815260040161253e90613569565b60405180910390fd5b80600660006101000a81548173ffffffffffffffffffffffffffffffffffffffff021916908373ffffffffffffffffffffffffffffffffffffffff16021790555050565b612593612683565b73ffffffffffffffffffffffffffffffffffffffff166125b161157d565b73ffffffffffffffffffffffffffffffffffffffff1614612607576040517f08c379a00000000000000000000000000000000000000000000000000000000081526004016125fe90613569565b60405180910390fd5b600073ffffffffffffffffffffffffffffffffffffffff168173ffffffffffffffffffffffffffffffffffffffff161415612677576040517f08c379a000000000000000000000000000000000000000000000000000000000815260040161266e9061386e565b60405180910390fd5b6126808161268b565b50565b600033905090565b60008060009054906101000a900473ffffffffffffffffffffffffffffffffffffffff169050816000806101000a81548173ffffffffffffffffffffffffffffffffffffffff021916908373ffffffffffffffffffffffffffffffffffffffff1602179055508173ffffffffffffffffffffffffffffffffffffffff168173ffffffffffffffffffffffffffffffffffffffff167f8be0079c531659141344cd1fd0a4f28419497f9722a3daafe3b4186f6b6457e060405160405180910390a35050565b82805461275b90613173565b90600052602060002090601f01602090048101928261277d57600085556127c4565b82601f1061279657805160ff19168380011785556127c4565b828001600101855582156127c4579182015b828111156127c35782518255916020019190600101906127a8565b5b5090506127d191906127d5565b5090565b5b808211156127ee5760008160009055506001016127d6565b5090565b6000604051905090565b600080fd5b600080fd5b600073ffffffffffffffffffffffffffffffffffffffff82169050919050565b600061283182612806565b9050919050565b61284181612826565b811461284c57600080fd5b50565b60008135905061285e81612838565b92915050565b6000819050919050565b61287781612864565b811461288257600080fd5b50565b6000813590506128948161286e565b92915050565b600080fd5b600080fd5b600080fd5b60008083601f8401126128bf576128be61289a565b5b8235905067ffffffffffffffff8111156128dc576128db61289f565b5b6020830191508360018202830111156128f8576128f76128a4565b5b9250929050565b60008060008060006080868803121561291b5761291a6127fc565b5b60006129298882890161284f565b955050602061293a8882890161284f565b945050604061294b88828901612885565b935050606086013567ffffffffffffffff81111561296c5761296b612801565b5b612978888289016128a9565b92509250509295509295909350565b60007fffffffff0000000000000000000000000000000000000000000000000000000082169050919050565b6129bc81612987565b82525050565b60006020820190506129d760008301846129b3565b92915050565b6000602082840312156129f3576129f26127fc565b5b6000612a0184828501612885565b91505092915050565b600060208284031215612a2057612a1f6127fc565b5b6000612a2e8482850161284f565b91505092915050565b60008060408385031215612a4e57612a4d6127fc565b5b6000612a5c85828601612885565b9250506020612a6d85828601612885565b9150509250929050565b60008115159050919050565b612a8c81612a77565b8114612a9757600080fd5b50565b600081359050612aa981612a83565b92915050565b600080600060608486031215612ac857612ac76127fc565b5b6000612ad686828701612885565b9350506020612ae786828701612885565b9250506040612af886828701612a9a565b9150509250925092565b612b0b81612864565b82525050565b612b1a81612a77565b82525050565b600060a082019050612b356000830188612b02565b612b426020830187612b02565b612b4f6040830186612b02565b612b5c6060830185612b02565b612b696080830184612b11565b9695505050505050565b612b7c81612826565b82525050565b600081519050919050565b600082825260208201905092915050565b60005b83811015612bbc578082015181840152602081019050612ba1565b83811115612bcb576000848401525b50505050565b6000601f19601f8301169050919050565b6000612bed82612b82565b612bf78185612b8d565b9350612c07818560208601612b9e565b612c1081612bd1565b840191505092915050565b7f4e487b7100000000000000000000000000000000000000000000000000000000600052602160045260246000fd5b60078110612c5b57612c5a612c1b565b5b50565b6000819050612c6c82612c4a565b919050565b6000612c7c82612c5e565b9050919050565b612c8c81612c71565b82525050565b600061012082019050612ca8600083018c612b73565b612cb5602083018b612b73565b8181036040830152612cc7818a612be2565b90508181036060830152612cdb8189612be2565b90508181036080830152612cef8188612be2565b9050612cfe60a0830187612c83565b612d0b60c0830186612b02565b612d1860e0830185612b02565b612d26610100830184612b11565b9a9950505050505050505050565b6000602082019050612d496000830184612b73565b92915050565b600080fd5b7f4e487b7100000000000000000000000000000000000000000000000000000000600052604160045260246000fd5b612d8c82612bd1565b810181811067ffffffffffffffff82111715612dab57612daa612d54565b5b80604052505050565b6000612dbe6127f2565b9050612dca8282612d83565b919050565b600067ffffffffffffffff821115612dea57612de9612d54565b5b612df382612bd1565b9050602081019050919050565b82818337600083830152505050565b6000612e22612e1d84612dcf565b612db4565b905082815260208101848484011115612e3e57612e3d612d4f565b5b612e49848285612e00565b509392505050565b600082601f830112612e6657612e6561289a565b5b8135612e76848260208601612e0f565b91505092915050565b60008060008060808587031215612e9957612e986127fc565b5b6000612ea787828801612885565b945050602085013567ffffffffffffffff811115612ec857612ec7612801565b5b612ed487828801612e51565b9350506040612ee58782880161284f565b925050606085013567ffffffffffffffff811115612f0657612f05612801565b5b612f1287828801612e51565b91505092959194509250565b6000608082019050612f336000830187612b02565b612f406020830186612b02565b612f4d6040830185612b11565b612f5a6060830184612b11565b95945050505050565b60008060408385031215612f7a57612f796127fc565b5b6000612f8885828601612885565b925050602083013567ffffffffffffffff811115612fa957612fa8612801565b5b612fb585828601612e51565b9150509250929050565b6000602082019050612fd46000830184612b02565b92915050565b7f616c726561647920636f6e766572746572210000000000000000000000000000600082015250565b6000613010601283612b8d565b915061301b82612fda565b602082019050919050565b6000602082019050818103600083015261303f81613003565b9050919050565b600060608201905061305b6000830186612b73565b6130686020830185612b73565b6130756040830184612b02565b949350505050565b60008151905061308c81612a83565b92915050565b6000602082840312156130a8576130a76127fc565b5b60006130b68482850161307d565b91505092915050565b7f4e487b7100000000000000000000000000000000000000000000000000000000600052603260045260246000fd5b60008160001c9050919050565b600073ffffffffffffffffffffffffffffffffffffffff82169050919050565b600061312e613129836130ee565b6130fb565b9050919050565b61313e81612826565b82525050565b7f4e487b7100000000000000000000000000000000000000000000000000000000600052602260045260246000fd5b6000600282049050600182168061318b57607f821691505b6020821081141561319f5761319e613144565b5b50919050565b600082825260208201905092915050565b60008190508160005260206000209050919050565b600081546131d881613173565b6131e281866131a5565b945060018216600081146131fd576001811461320f57613242565b60ff1983168652602086019350613242565b613218856131b6565b60005b8381101561323a5781548189015260018201915060208101905061321b565b808801955050505b50505092915050565b600060ff82169050919050565b600061326b613266836130ee565b61324b565b9050919050565b61327b81612c71565b82525050565b6000819050919050565b600061329e613299836130ee565b613281565b9050919050565b6132ae81612864565b82525050565b600060ff82169050919050565b60006132d46132cf836130ee565b6132b4565b9050919050565b6132e481612a77565b82525050565b6000610120830160008084015490506133028161311b565b61330f6000870182613135565b50600184015490506133208161311b565b61332d6020870182613135565b5060028401858303604087015261334483826131cb565b92505060038401858303606087015261335d83826131cb565b92505060048401858303608087015261337683826131cb565b9250506005840154905061338981613258565b61339660a0870182613272565b50600684015490506133a78161328b565b6133b460c08701826132a5565b50600784015490506133c58161328b565b6133d260e08701826132a5565b50600884015490506133e3816132c1565b6133f16101008701826132db565b50819250505092915050565b60006040820190506134126000830185612b02565b818103602083015261342481846132ea565b90509392505050565b7f4e487b7100000000000000000000000000000000000000000000000000000000600052601160045260246000fd5b600061346782612864565b915061347283612864565b9250827fffffffffffffffffffffffffffffffffffffffffffffffffffffffffffffffff038211156134a7576134a661342d565b5b828201905092915050565b6000815190506134c181612838565b92915050565b6000602082840312156134dd576134dc6127fc565b5b60006134eb848285016134b2565b91505092915050565b60006040820190506135096000830185612b73565b6135166020830184612b02565b9392505050565b7f4f776e61626c653a2063616c6c6572206973206e6f7420746865206f776e6572600082015250565b6000613553602083612b8d565b915061355e8261351d565b602082019050919050565b6000602082019050818103600083015261358281613546565b9050919050565b600061359482612864565b915061359f83612864565b9250828210156135b2576135b161342d565b5b828203905092915050565b60006040820190506135d26000830185612b02565b6135df6020830184612b02565b9392505050565b60006060820190506135fb6000830186612b02565b6136086020830185612b02565b6136156040830184612b11565b949350505050565b7f6e6f74206f776e65720000000000000000000000000000000000000000000000600082015250565b6000613653600983612b8d565b915061365e8261361d565b602082019050919050565b6000602082019050818103600083015261368281613646565b9050919050565b600061369482612b82565b61369e81856131a5565b93506136ae818560208601612b9e565b6136b781612bd1565b840191505092915050565b6000610120830160008301516136db6000860182613135565b5060208301516136ee6020860182613135565b50604083015184820360408601526137068282613689565b915050606083015184820360608601526137208282613689565b9150506080830151848203608086015261373a8282613689565b91505060a083015161374f60a0860182613272565b5060c083015161376260c08601826132a5565b5060e083015161377560e08601826132a5565b5061010083015161378a6101008601826132db565b508091505092915050565b60006040820190506137aa6000830185612b02565b81810360208301526137bc81846136c2565b90509392505050565b60006060820190506137da6000830186612b02565b6137e76020830185612b73565b6137f46040830184612b02565b949350505050565b7f4f776e61626c653a206e6577206f776e657220697320746865207a65726f206160008201527f6464726573730000000000000000000000000000000000000000000000000000602082015250565b6000613858602683612b8d565b9150613863826137fc565b604082019050919050565b600060208201905081810360008301526138878161384b565b905091905056fea2646970667358221220e9a0581489a10fc0e41f68c08fc81d3feb54b00603410be5e8a8a83a5da9358964736f6c634300080a0033",
  "immutableReferences": {},
  "source": "pragma solidity >=0.4.22 <0.9.0;\n\nimport \"@openzeppelin/contracts/access/Ownable.sol\";\nimport \"@openzeppelin/contracts/token/ERC721/IERC721Receiver.sol\";\nimport \"./HumanStaker.sol\";\nimport \"./HumanERC20.sol\";\n\n//    .\ncontract HumanConverter is HumanStaker, IERC721Receiver {\n\n  event AddConverter(address converter);\n  event RemoveConverter(address converter);\n  event AddRequest(uint requestId, Request request);\n  event WithdrawConverter(address converter, uint balance);\n  event ConvertAllow(uint requestId, Request request);\n  event ConvertStart(uint requestId, Request request);\n  event ConvertSuccess(uint requestId, Request request);\n  event ConvertConfirm(uint requestId, Request request);\n  event ConvertComplain(uint requestId, Request request);\n  event SetConverterFee(uint balance);\n\n  enum STATUS { WAIT, CONVERT, SUCCESS, CANCEL, ERROR, COMPLAIN, END }\n\n  struct Request {\n    address client;\n    address converter;\n    string sourceUri;\n    string humanNumber;\n    string resultUri;\n    STATUS status;\n    uint tokenId;\n    uint date;\n    bool allowed;\n  }\n\n  struct Converter {\n    uint total;\n    uint balance;\n    uint convertCount;\n    uint complainCount;\n    bool active;\n  }\n\n  uint converterFee;\n  address humanERC20StakerAddress;\n  mapping (address => Converter) public converter;\n  Request[] public requests;\n  mapping (uint => uint[]) public requestsOfHuman;\n  // mapping (uint => uint[]) public requestsOfConverter;\n\n  constructor () {}\n\n  modifier onlyConverter() {\n    require(converter[msg.sender].active == true);\n    _;\n  }\n\n  modifier onlyConverterOf(uint _requestId) {\n    require(requests[_requestId].converter == msg.sender);\n    _;\n  }\n\n  function onERC721Received(\n      address operator,\n      address from,\n      uint256 tokenId,\n      bytes calldata data\n  ) public returns (bytes4) {\n    return IERC721Receiver.onERC721Received.selector;\n  }\n\n  function addConverter() public {\n    require(converter[msg.sender].total < 1, \"already converter!\");\n    humanERC20.transferFrom(msg.sender, humanERC20StakerAddress, converterFee);\n    converter[msg.sender] = Converter(0, 0, 0, 0, true);\n  }\n\n  function removeConverter(address _address) public onlyOwner {\n    Converter storage _converter = converter[_address];\n    _converter.active = false;\n  }\n\n  function setHumanERC20Staker(address _address) public onlyOwner {\n    humanERC20StakerAddress = _address;\n  } \n\n  function setConverterFee(uint _balance) public onlyOwner {\n    converterFee = _balance;\n    emit SetConverterFee(_balance);\n  }\n\n  function withdrawConverter(uint _balance) public {\n    require(converter[msg.sender].balance > _balance);\n    converter[msg.sender].balance -= _balance;\n    humanERC20.transferFrom(address(this), msg.sender, _balance);\n    emit WithdrawConverter(msg.sender, _balance);\n  }\n\n  function request(uint _tokenId, string memory _sourceUri, address _converter, string memory _humanNumber) public {\n    // stakes[_tokenId];\n    // ,   \n    if (shumanERC721.ownerOf(_tokenId) != address(0)) {\n      use(_tokenId);\n    } else {\n      require(humanERC721.ownerOf(_tokenId) == msg.sender, \"not owner\");\n    }\n    bool allowed = !stakes[_tokenId].isManual;\n    \n    Request memory _request = Request(msg.sender, _converter, _sourceUri, _humanNumber, \"\", STATUS.WAIT, _tokenId, block.timestamp, allowed);\n    \n    uint requestId = requests.length;\n    requests.push(_request);\n    requestsOfHuman[_tokenId].push(requestId);\n    emit AddRequest(requestId, _request);\n  }\n\n  function allow(uint _requestId) public {\n    Request storage _request = requests[_requestId];\n    require(_request.client == msg.sender);\n    _request.allowed = true;\n    emit ConvertAllow(_requestId, _request);\n  }\n\n  function start(uint _requestId) public onlyConverter {\n    Request storage _request = requests[_requestId];\n    require(_request.allowed == true);\n    require(_request.status == STATUS.WAIT);\n    require(_request.converter == address(0) || _request.converter == msg.sender);\n    \n    _request.status = STATUS.CONVERT;\n    _request.converter = msg.sender;\n    emit ConvertStart(_requestId, _request);\n  }\n\n  function success(uint _requestId, string memory _resultUri) public {\n    Request storage _request = requests[_requestId];\n    require(_request.converter == msg.sender);\n\n    _request.status = STATUS.SUCCESS;\n    _request.resultUri = _resultUri;\n    _request.date = block.timestamp;\n    emit ConvertSuccess(_requestId, _request);\n  }\n\n  function confirm(uint _requestId) public {\n    Request storage _request = requests[_requestId];\n    require(_request.client == msg.sender);\n    converter[_request.converter].convertCount += 1;\n    _request.status = STATUS.END;\n    StakingOption storage option = stakes[_request.tokenId];\n    option.balance += option.fee;\n    emit ConvertConfirm(_requestId, _request);\n  }\n\n  function complain(uint _requestId) public {\n    Request storage _request = requests[_requestId];\n    require(_request.client == msg.sender);\n    converter[_request.converter].complainCount += 1;\n    emit ConvertComplain(_requestId, _request);\n  }\n}",
  "sourcePath": "/Users/klleon/workspace/blockchain/vhuman/contracts/HumanConverter.sol",
  "compiler": {
    "name": "solc",
    "version": "0.8.10+commit.fc410830.Emscripten.clang"
  },
  "schemaVersion": "3.4.3",
  "updatedAt": "2021-12-16T07:13:48.488Z",
  "networkType": "ethereum",
  "devdoc": {
    "kind": "dev",
    "methods": {
      "onERC721Received(address,address,uint256,bytes)": {
        "details": "Whenever an {IERC721} `tokenId` token is transferred to this contract via {IERC721-safeTransferFrom} by `operator` from `from`, this function is called. It must return its Solidity selector to confirm the token transfer. If any other value is returned or the interface is not implemented by the recipient, the transfer will be reverted. The selector can be obtained in Solidity with `IERC721.onERC721Received.selector`."
      },
      "owner()": {
        "details": "Returns the address of the current owner."
      },
      "renounceOwnership()": {
        "details": "Leaves the contract without owner. It will not be possible to call `onlyOwner` functions anymore. Can only be called by the current owner. NOTE: Renouncing ownership will leave the contract without an owner, thereby removing any functionality that is only available to the owner."
      },
      "transferOwnership(address)": {
        "details": "Transfers ownership of the contract to a new account (`newOwner`). Can only be called by the current owner."
      }
    },
    "version": 1
  },
  "userdoc": {
    "kind": "user",
    "methods": {},
    "version": 1
  }
}